:020000040000FA
:100000000C2882073F3406345B344F3466346D3439
:100010007D3407347F346F348501860107309F00BB
:1000200083162330850086018312A001A1010516E5
:100030003820051821286430200203182728A00A38
:10004000272885182C28A00803192728A003382062
:10005000051C2728851C272864302002031C34280F
:1000600005126330A100182805162008A1001828E1
:100070002108A300A2010A302302031C4228A30086
:10008000A20A3B2823080120860005114F200515F0
:1000900022080120860085114F20851508000A30AE
:1000A000A400FF30A500A50B5328A40B512808007D
:0400B00000340034E4
:02400E00613F10
:00000001FF
